{
    "contractName": "Incentives",
    "abi": [
        {
            "inputs": [
                {
                    "internalType": "address",
                    "name": "_governanceTokens",
                    "type": "address"
                }
            ],
            "stateMutability": "nonpayable",
            "type": "constructor"
        },
        {
            "anonymous": false,
            "inputs": [
                {
                    "indexed": true,
                    "internalType": "string",
                    "name": "symbol",
                    "type": "string"
                },
                {
                    "indexed": true,
                    "internalType": "address",
                    "name": "contractAddress",
                    "type": "address"
                }
            ],
            "name": "IncentivesTokenCreated",
            "type": "event"
        },
        {
            "inputs": [
                {
                    "internalType": "uint256",
                    "name": "",
                    "type": "uint256"
                }
            ],
            "name": "allTokens",
            "outputs": [
                {
                    "internalType": "address",
                    "name": "",
                    "type": "address"
                }
            ],
            "stateMutability": "view",
            "type": "function"
        },
        {
            "inputs": [],
            "name": "availableTokens",
            "outputs": [
                {
                    "internalType": "address[]",
                    "name": "",
                    "type": "address[]"
                },
                {
                    "internalType": "uint256[]",
                    "name": "",
                    "type": "uint256[]"
                }
            ],
            "stateMutability": "view",
            "type": "function"
        },
        {
            "inputs": [
                {
                    "internalType": "string",
                    "name": "name",
                    "type": "string"
                },
                {
                    "internalType": "string",
                    "name": "symbol",
                    "type": "string"
                }
            ],
            "name": "createnNewIncentivesToken",
            "outputs": [],
            "stateMutability": "nonpayable",
            "type": "function"
        },
        {
            "inputs": [],
            "name": "crowdsaleContract",
            "outputs": [
                {
                    "internalType": "address",
                    "name": "",
                    "type": "address"
                }
            ],
            "stateMutability": "view",
            "type": "function"
        },
        {
            "inputs": [
                {
                    "internalType": "string",
                    "name": "name",
                    "type": "string"
                },
                {
                    "internalType": "string",
                    "name": "symbol",
                    "type": "string"
                }
            ],
            "name": "getAddress",
            "outputs": [
                {
                    "internalType": "address",
                    "name": "",
                    "type": "address"
                }
            ],
            "stateMutability": "view",
            "type": "function"
        },
        {
            "inputs": [
                {
                    "internalType": "address",
                    "name": "user",
                    "type": "address"
                }
            ],
            "name": "getGovBalances",
            "outputs": [
                {
                    "internalType": "uint256",
                    "name": "",
                    "type": "uint256"
                }
            ],
            "stateMutability": "view",
            "type": "function"
        },
        {
            "inputs": [
                {
                    "internalType": "address",
                    "name": "user",
                    "type": "address"
                }
            ],
            "name": "getMaxBorrowed",
            "outputs": [
                {
                    "internalType": "uint256",
                    "name": "",
                    "type": "uint256"
                }
            ],
            "stateMutability": "view",
            "type": "function"
        },
        {
            "inputs": [],
            "name": "governanceTokens",
            "outputs": [
                {
                    "internalType": "contract IERC20",
                    "name": "",
                    "type": "address"
                }
            ],
            "stateMutability": "view",
            "type": "function"
        },
        {
            "inputs": [],
            "name": "initialSupply",
            "outputs": [
                {
                    "internalType": "uint256",
                    "name": "",
                    "type": "uint256"
                }
            ],
            "stateMutability": "view",
            "type": "function"
        },
        {
            "inputs": [
                {
                    "internalType": "address",
                    "name": "lockContract",
                    "type": "address"
                },
                {
                    "internalType": "address",
                    "name": "incentivesToken",
                    "type": "address"
                },
                {
                    "internalType": "uint256",
                    "name": "amount",
                    "type": "uint256"
                },
                {
                    "internalType": "uint256",
                    "name": "unlock_time",
                    "type": "uint256"
                }
            ],
            "name": "lockGovernance",
            "outputs": [],
            "stateMutability": "nonpayable",
            "type": "function"
        },
        {
            "inputs": [],
            "name": "owner",
            "outputs": [
                {
                    "internalType": "address",
                    "name": "",
                    "type": "address"
                }
            ],
            "stateMutability": "view",
            "type": "function"
        },
        {
            "inputs": [
                {
                    "internalType": "uint256",
                    "name": "amount",
                    "type": "uint256"
                }
            ],
            "name": "putGovernance",
            "outputs": [],
            "stateMutability": "nonpayable",
            "type": "function"
        },
        {
            "inputs": [
                {
                    "internalType": "address",
                    "name": "tokenAddress",
                    "type": "address"
                },
                {
                    "internalType": "uint256",
                    "name": "amount",
                    "type": "uint256"
                }
            ],
            "name": "putIncentivesTokens",
            "outputs": [],
            "stateMutability": "nonpayable",
            "type": "function"
        },
        {
            "inputs": [
                {
                    "internalType": "address",
                    "name": "crowdsale",
                    "type": "address"
                }
            ],
            "name": "setCrowdsale",
            "outputs": [],
            "stateMutability": "nonpayable",
            "type": "function"
        },
        {
            "inputs": [
                {
                    "internalType": "address",
                    "name": "newOwner",
                    "type": "address"
                }
            ],
            "name": "switchOwner",
            "outputs": [],
            "stateMutability": "nonpayable",
            "type": "function"
        },
        {
            "inputs": [
                {
                    "internalType": "address",
                    "name": "user",
                    "type": "address"
                }
            ],
            "name": "userState",
            "outputs": [
                {
                    "internalType": "address[]",
                    "name": "",
                    "type": "address[]"
                },
                {
                    "internalType": "uint256[]",
                    "name": "",
                    "type": "uint256[]"
                }
            ],
            "stateMutability": "view",
            "type": "function"
        },
        {
            "inputs": [],
            "name": "userscount",
            "outputs": [
                {
                    "internalType": "uint256",
                    "name": "",
                    "type": "uint256"
                }
            ],
            "stateMutability": "view",
            "type": "function"
        },
        {
            "inputs": [
                {
                    "internalType": "uint256",
                    "name": "amount",
                    "type": "uint256"
                }
            ],
            "name": "withdrawGovernance",
            "outputs": [],
            "stateMutability": "nonpayable",
            "type": "function"
        },
        {
            "inputs": [
                {
                    "internalType": "address",
                    "name": "tokenAddress",
                    "type": "address"
                },
                {
                    "internalType": "uint256",
                    "name": "amount",
                    "type": "uint256"
                }
            ],
            "name": "withdrawIncentives",
            "outputs": [],
            "stateMutability": "nonpayable",
            "type": "function"
        }
    ],
    "bytecode": "6080604052600060075534801561001557600080fd5b5060405162003501380380620035018339818101604052602081101561003a57600080fd5b5051600280546001600160a01b031990811633179091556008805460ff19169055600680546001600160a01b03808516919093161790819055604080516318160ddd60e01b8152905191909216916318160ddd916004808301926020929190829003018186803b1580156100ad57600080fd5b505afa1580156100c1573d6000803e3d6000fd5b505050506040513d60208110156100d757600080fd5b50516001555061341480620000ed6000396000f3fe60806040523480156200001157600080fd5b50600436106200013c5760003560e01c806369bb4dc211620000bd578063a5907272116200007b578063a590727214620004ae578063a83fe4e814620004b8578063af17eb3e14620005ea578063c2514d1b1462000619578063f0783f821462000658576200013c565b806369bb4dc2146200033e57806375d2f2fe1462000348578063791b6d601462000368578063860941bb146200049a5780638da5cb5b14620004a4576200013c565b8063378dc3dc116200010b578063378dc3dc1462000299578063395d7deb14620002a357806340e1e9f114620002cc578063483a20b214620002f5578063634282af146200031e576200013c565b80630c8f81b514620001415780630d4a98351462000207578063157883ae1462000238578063316163951462000273575b600080fd5b6200016a600480360360208110156200015957600080fd5b50356001600160a01b031662000678565b604051808060200180602001838103835285818151815260200191508051906020019060200280838360005b83811015620001b057818101518382015260200162000196565b50505050905001838103825284818151815260200191508051906020019060200280838360005b83811015620001f1578181015183820152602001620001d7565b5050505090500194505050505060405180910390f35b62000236600480360360408110156200021f57600080fd5b506001600160a01b03813516906020013562000901565b005b62000261600480360360208110156200025057600080fd5b50356001600160a01b031662000ced565b60408051918252519081900360200190f35b6200027d62000d68565b604080516001600160a01b039092168252519081900360200190f35b6200026162000d77565b6200023660048036036020811015620002bb57600080fd5b50356001600160a01b031662000d7d565b6200026160048036036020811015620002e457600080fd5b50356001600160a01b031662000df9565b62000236600480360360208110156200030d57600080fd5b50356001600160a01b031662000e74565b6200027d600480360360208110156200033657600080fd5b503562000ef0565b6200016a62000f1b565b62000236600480360360208110156200036057600080fd5b5035620011a2565b6200027d600480360360408110156200038057600080fd5b810190602081018135600160201b8111156200039b57600080fd5b820183602082011115620003ae57600080fd5b803590602001918460018302840111600160201b83111715620003d057600080fd5b91908080601f0160208091040260200160405190810160405280939291908181526020018383808284376000920191909152509295949360208101935035915050600160201b8111156200042357600080fd5b8201836020820111156200043657600080fd5b803590602001918460018302840111600160201b831117156200045857600080fd5b91908080601f01602080910402602001604051908101604052809392919081815260200183838082843760009201919091525092955062001345945050505050565b6200027d6200162e565b6200027d6200163d565b620002616200164c565b6200023660048036036040811015620004d057600080fd5b810190602081018135600160201b811115620004eb57600080fd5b820183602082011115620004fe57600080fd5b803590602001918460018302840111600160201b831117156200052057600080fd5b91908080601f0160208091040260200160405190810160405280939291908181526020018383808284376000920191909152509295949360208101935035915050600160201b8111156200057357600080fd5b8201836020820111156200058657600080fd5b803590602001918460018302840111600160201b83111715620005a857600080fd5b91908080601f01602080910402602001604051908101604052809392919081815260200183838082843760009201919091525092955062001652945050505050565b62000236600480360360408110156200060257600080fd5b506001600160a01b03813516906020013562001aa2565b62000236600480360360808110156200063157600080fd5b506001600160a01b0381358116916020810135909116906040810135906060013562001ca8565b62000236600480360360208110156200067057600080fd5b503562001f2e565b6001600160a01b0381166000908152600460205260409020546060908190620006d9576040805162461bcd60e51b815260206004820152600e60248201526d1d5cd95c881b9bdd08195e1a5cdd60921b604482015290519081900360640190fd5b60035460009060010167ffffffffffffffff81118015620006f957600080fd5b5060405190808252806020026020018201604052801562000724578160200160208202803683370190505b5060035490915060009060010167ffffffffffffffff811180156200074857600080fd5b5060405190808252806020026020018201604052801562000773578160200160208202803683370190505b50905060005b6003548110156200087957600381815481106200079257fe5b9060005260206000200160009054906101000a90046001600160a01b0316838281518110620007bd57fe5b60200260200101906001600160a01b031690816001600160a01b0316815250506200085860046000886001600160a01b03166001600160a01b031681526020019081526020016000206004016000600384815481106200081957fe5b60009182526020808320909101546001600160a01b039081168452838201949094526040928301822054938b1682526004905220600101549062002045565b8282815181106200086557fe5b602090810291909101015260010162000779565b5060065460035483516001600160a01b039092169184919081106200089a57fe5b6001600160a01b0392831660209182029290920181019190915290861660009081526004909152604090206003810154600190910154620008db9162002045565b60035482518391908110620008ec57fe5b60209081029190910101529092509050915091565b3360009081526004602052604090205462000954576040805162461bcd60e51b815260206004820152600e60248201526d1d5cd95c881b9bdd08195e1a5cdd60921b604482015290519081900360640190fd5b6000811180156200098a57503360009081526004602081815260408084206001600160a01b038716855290920190529020548111155b620009dc576040805162461bcd60e51b815260206004820152601a60248201527f62616420616d6f756e74206f7220746f6b656e41646472657373000000000000604482015290519081900360640190fd5b60408051636eb1769f60e11b8152336004820152306024820152905182916001600160a01b0385169163dd62ed3e91604480820192602092909190829003018186803b15801562000a2c57600080fd5b505afa15801562000a41573d6000803e3d6000fd5b505050506040513d602081101562000a5857600080fd5b5051101562000a995760405162461bcd60e51b8152600401808060200182810382526034815260200180620033816034913960400191505060405180910390fd5b62000ab06001600160a01b03831633308462002090565b3360009081526004602081815260408084206001600160a01b0387168552909201905290205481101562000b3c573360009081526004602081815260408084206001600160a01b0387168552909201905290205462000b10908262002045565b3360009081526004602081815260408084206001600160a01b0388168552909201905290205562000b63565b3360009081526004602081815260408084206001600160a01b038716855290920190528120555b336000908152600460205260409020600201546001600160a01b038381169116141562000ce957604080518082019091526000808252602082018190525b60035481101562000ca957816020015160046000336001600160a01b03166001600160a01b0316815260200190815260200160002060040160006003848154811062000be957fe5b60009182526020808320909101546001600160a01b03168352820192909252604001902054111562000ca05760046000336001600160a01b03166001600160a01b0316815260200190815260200160002060040160006003838154811062000c4d57fe5b60009182526020808320909101546001600160a01b0316835282810193909352604090910190205490830152600380548290811062000c8857fe5b6000918252602090912001546001600160a01b031682525b60010162000ba1565b5033600090815260046020908152604090912082516002820180546001600160a01b0319166001600160a01b039092169190911790559101516003909101555b5050565b6001600160a01b03811660009081526004602052604081205462000d49576040805162461bcd60e51b815260206004820152600e60248201526d1d5cd95c881b9bdd08195e1a5cdd60921b604482015290519081900360640190fd5b506001600160a01b031660009081526004602052604090206003015490565b6000546001600160a01b031681565b60015481565b6002546001600160a01b0316331462000dd7576040805162461bcd60e51b815260206004820152601760248201527631b0b63632b91034b9903737ba103a34329037bbb732b960491b604482015290519081900360640190fd5b600280546001600160a01b0319166001600160a01b0392909216919091179055565b6001600160a01b03811660009081526004602052604081205462000e55576040805162461bcd60e51b815260206004820152600e60248201526d1d5cd95c881b9bdd08195e1a5cdd60921b604482015290519081900360640190fd5b506001600160a01b031660009081526004602052604090206001015490565b6002546001600160a01b0316331462000ece576040805162461bcd60e51b815260206004820152601760248201527631b0b63632b91034b9903737ba103a34329037bbb732b960491b604482015290519081900360640190fd5b600080546001600160a01b0319166001600160a01b0392909216919091179055565b6003818154811062000f0157600080fd5b6000918252602090912001546001600160a01b0316905081565b606080600060038054905060010167ffffffffffffffff8111801562000f4057600080fd5b5060405190808252806020026020018201604052801562000f6b578160200160208202803683370190505b5060035490915060009060010167ffffffffffffffff8111801562000f8f57600080fd5b5060405190808252806020026020018201604052801562000fba578160200160208202803683370190505b50905060005b600354811015620010d3576003818154811062000fd957fe5b9060005260206000200160009054906101000a90046001600160a01b03168382815181106200100457fe5b60200260200101906001600160a01b031690816001600160a01b031681525050600381815481106200103257fe5b60009182526020918290200154604080516370a0823160e01b815230600482015290516001600160a01b03909216926370a0823192602480840193829003018186803b1580156200108257600080fd5b505afa15801562001097573d6000803e3d6000fd5b505050506040513d6020811015620010ae57600080fd5b50518251839083908110620010bf57fe5b602090810291909101015260010162000fc0565b5060065460035483516001600160a01b03909216918491908110620010f457fe5b6001600160a01b03928316602091820292909201810191909152600654604080516370a0823160e01b8152306004820152905191909316926370a08231926024808301939192829003018186803b1580156200114f57600080fd5b505afa15801562001164573d6000803e3d6000fd5b505050506040513d60208110156200117b57600080fd5b5051600354825183919081106200118e57fe5b602090810291909101015290925090509091565b60008111620011f8576040805162461bcd60e51b815260206004820152601d60248201527f616d6f756e74206d7573742062652067726561746572207468616e2030000000604482015290519081900360640190fd5b60065460408051636eb1769f60e11b8152336004820152306024820152905183926001600160a01b03169163dd62ed3e916044808301926020929190829003018186803b1580156200124957600080fd5b505afa1580156200125e573d6000803e3d6000fd5b505050506040513d60208110156200127557600080fd5b50511015620012b65760405162461bcd60e51b8152600401808060200182810382526034815260200180620033816034913960400191505060405180910390fd5b600654620012d0906001600160a01b031633308462002090565b33600090815260046020526040902054156200131e5733600090815260046020526040902060010154620013059082620020f2565b3360009081526004602052604090206001015562001342565b60078054600190810191829055336000908152600460205260409020918255018190555b50565b600080604051806020016200135a90620024e8565b6020820181038252601f19601f820116604052509050808484600154604051602001808060200180602001848152602001838103835286818151815260200191508051906020019080838360005b83811015620013c2578181015183820152602001620013a8565b50505050905090810190601f168015620013f05780820380516001836020036101000a031916815260200191505b50838103825285518152855160209182019187019080838360005b83811015620014255781810151838201526020016200140b565b50505050905090810190601f168015620014535780820380516001836020036101000a031916815260200191505b50955050505050506040516020818303038152906040526040516020018083805190602001908083835b602083106200149e5780518252601f1990920191602091820191016200147d565b51815160209384036101000a600019018019909216911617905285519190930192850191508083835b60208310620014e85780518252601f199092019160209182019101620014c7565b6001836020036101000a038019825116818451168082178552505050505050905001925050506040516020818303038152906040529050600084846040516020018083805190602001908083835b60208310620015575780518252601f19909201916020918201910162001536565b51815160209384036101000a600019018019909216911617905285519190930192850191508083835b60208310620015a15780518252601f19909201916020918201910162001580565b51815160209384036101000a60001901801990921691161790526040805192909401828103601f190183528085528251928201929092208951998201999099206001600160f81b0319838301523060601b60218401526035830199909952605580830199909952835180830390990189526075909101909252508551950194909420979650505050505050565b6006546001600160a01b031681565b6002546001600160a01b031681565b60075490565b6002546001600160a01b03163314620016ac576040805162461bcd60e51b815260206004820152601760248201527631b0b63632b91034b9903737ba103a34329037bbb732b960491b604482015290519081900360640190fd5b600060405180602001620016c090620024e8565b6020820181038252601f19601f820116604052509050808383600154604051602001808060200180602001848152602001838103835286818151815260200191508051906020019080838360005b83811015620017285781810151838201526020016200170e565b50505050905090810190601f168015620017565780820380516001836020036101000a031916815260200191505b50838103825285518152855160209182019187019080838360005b838110156200178b57818101518382015260200162001771565b50505050905090810190601f168015620017b95780820380516001836020036101000a031916815260200191505b50955050505050506040516020818303038152906040526040516020018083805190602001908083835b60208310620018045780518252601f199092019160209182019101620017e3565b51815160209384036101000a600019018019909216911617905285519190930192850191508083835b602083106200184e5780518252601f1990920191602091820191016200182d565b6001836020036101000a038019825116818451168082178552505050505050905001925050506040516020818303038152906040529050600083836040516020018083805190602001908083835b60208310620018bd5780518252601f1990920191602091820191016200189c565b51815160209384036101000a600019018019909216911617905285519190930192850191508083835b60208310620019075780518252601f199092019160209182019101620018e6565b6001836020036101000a038019825116818451168082178552505050505050905001925050506040516020818303038152906040528051906020012090506000818351602085016000f590506001600160a01b038116620019af576040805162461bcd60e51b815260206004820152601960248201527f437265617465323a204661696c6564206f6e206465706c6f7900000000000000604482015290519081900360640190fd5b6003805460018082019092557fc2575a0e9e593c00f959f8c92f12db2869c3395a3b0502d05e2516446f71f85b0180546001600160a01b0319166001600160a01b038416908117909155600081815260056020908152604091829020805460ff19169094179093555186519192879282918401908083835b6020831062001a485780518252601f19909201916020918201910162001a27565b5181516020939093036101000a60001901801990911692169190911790526040519201829003822093507fd7f84b725deb765d895b7bad7c15057aeb3cb10dd89ddd46551865c486f377ae92506000919050a35050505050565b6001600160a01b03821660009081526005602052604090205460ff1662001b02576040805162461bcd60e51b815260206004820152600f60248201526e1d1bdad95b881b9bdd08195e1a5cdd608a1b604482015290519081900360640190fd5b3360009081526004602052604090205462001b55576040805162461bcd60e51b815260206004820152600e60248201526d1d5cd95c881b9bdd08195e1a5cdd60921b604482015290519081900360640190fd5b60008111801562001ba257503360008181526004602081815260408084206001600160a01b0388168552808401835290842054949093525260010154829162001b9f919062002045565b10155b62001bdf5760405162461bcd60e51b81526004018080602001828103825260248152602001806200335d6024913960400191505060405180910390fd5b3360009081526004602081815260408084206001600160a01b0387168552909201905290205462001c119082620020f2565b3360009081526004602081815260408084206001600160a01b038816855292830190915290912082905560030154101562001c92573360008181526004602081815260408084206001600160a01b03881680865281850184529185205495909452919052600382019290925560020180546001600160a01b03191690911790555b62000ce96001600160a01b03831633836200214d565b6000546001600160a01b03161580159062001ccd57506000546001600160a01b031633145b62001d1f576040805162461bcd60e51b815260206004820181905260248201527f63616c6c6572206d7573742062652063726f776473616c65436f6e7472616374604482015290519081900360640190fd5b6001600160a01b03831660009081526005602052604090205460ff1662001d7f576040805162461bcd60e51b815260206004820152600f60248201526e1d1bdad95b881b9bdd08195e1a5cdd608a1b604482015290519081900360640190fd5b326000908152600460205260409020541562001dcd573260009081526004602052604090206001015462001db49083620020f2565b3260009081526004602052604090206001015562001df1565b60078054600190810191829055326000908152600460205260409020918255018290555b3260009081526004602081815260408084206001600160a01b0388168552909201905290205462001e239083620020f2565b3260009081526004602081815260408084206001600160a01b038916855292830190915290912082905560030154101562001ea4573260008181526004602081815260408084206001600160a01b03891680865281850184529185205495909452919052600382019290925560020180546001600160a01b03191690911790555b62001eba6001600160a01b03841685846200214d565b6000849050806001600160a01b03166377a0da7384846040518363ffffffff1660e01b81526004018083815260200182815260200192505050600060405180830381600087803b15801562001f0e57600080fd5b505af115801562001f23573d6000803e3d6000fd5b505050505050505050565b3360009081526004602052604090205462001f81576040805162461bcd60e51b815260206004820152600e60248201526d1d5cd95c881b9bdd08195e1a5cdd60921b604482015290519081900360640190fd5b60008111801562001fb857503360009081526004602052604090206003810154600190910154829162001fb5919062002045565b10155b62001ff55760405162461bcd60e51b8152600401808060200182810382526024815260200180620033396024913960400191505060405180910390fd5b3360009081526004602052604090206001015462002014908262002045565b3360008181526004602052604090206001019190915560065462001342916001600160a01b0390911690836200214d565b60006200208983836040518060400160405280601e81526020017f536166654d6174683a207375627472616374696f6e206f766572666c6f770000815250620021a6565b9392505050565b604080516001600160a01b0380861660248301528416604482015260648082018490528251808303909101815260849091019091526020810180516001600160e01b03166323b872dd60e01b179052620020ec90859062002241565b50505050565b60008282018381101562002089576040805162461bcd60e51b815260206004820152601b60248201527f536166654d6174683a206164646974696f6e206f766572666c6f770000000000604482015290519081900360640190fd5b604080516001600160a01b038416602482015260448082018490528251808303909101815260649091019091526020810180516001600160e01b031663a9059cbb60e01b179052620021a190849062002241565b505050565b60008184841115620022395760405162461bcd60e51b81526004018080602001828103825283818151815260200191508051906020019080838360005b83811015620021fd578181015183820152602001620021e3565b50505050905090810190601f1680156200222b5780820380516001836020036101000a031916815260200191505b509250505060405180910390fd5b505050900390565b600062002298826040518060400160405280602081526020017f5361666545524332303a206c6f772d6c6576656c2063616c6c206661696c6564815250856001600160a01b0316620022f89092919063ffffffff16565b805190915015620021a157808060200190516020811015620022b957600080fd5b5051620021a15760405162461bcd60e51b815260040180806020018281038252602a815260200180620033b5602a913960400191505060405180910390fd5b606062002309848460008562002311565b949350505050565b606082471015620023545760405162461bcd60e51b8152600401808060200182810382526026815260200180620033136026913960400191505060405180910390fd5b6200235f8562002477565b620023b1576040805162461bcd60e51b815260206004820152601d60248201527f416464726573733a2063616c6c20746f206e6f6e2d636f6e7472616374000000604482015290519081900360640190fd5b600080866001600160a01b031685876040518082805190602001908083835b60208310620023f15780518252601f199092019160209182019101620023d0565b6001836020036101000a03801982511681845116808217855250505050505090500191505060006040518083038185875af1925050503d806000811462002455576040519150601f19603f3d011682016040523d82523d6000602084013e6200245a565b606091505b50915091506200246c8282866200247d565b979650505050505050565b3b151590565b606083156200248e57508162002089565b8251156200249f5782518084602001fd5b60405162461bcd60e51b8152602060048201818152845160248401528451859391928392604401919085019080838360008315620021fd578181015183820152602001620021e3565b610e1c80620024f78339019056fe60806040523480156200001157600080fd5b5060405162000e1c38038062000e1c833981810160405260608110156200003757600080fd5b81019080805160405193929190846401000000008211156200005857600080fd5b9083019060208201858111156200006e57600080fd5b82516401000000008111828201881017156200008957600080fd5b82525081516020918201929091019080838360005b83811015620000b85781810151838201526020016200009e565b50505050905090810190601f168015620000e65780820380516001836020036101000a031916815260200191505b50604052602001805160405193929190846401000000008211156200010a57600080fd5b9083019060208201858111156200012057600080fd5b82516401000000008111828201881017156200013b57600080fd5b82525081516020918201929091019080838360005b838110156200016a57818101518382015260200162000150565b50505050905090810190601f168015620001985780820380516001836020036101000a031916815260200191505b5060405260209081015185519093508592508491620001bd916003918501906200036e565b508051620001d39060049060208401906200036e565b50506005805460ff1916601217905550620001ef3382620001f8565b5050506200041a565b6001600160a01b03821662000254576040805162461bcd60e51b815260206004820152601f60248201527f45524332303a206d696e7420746f20746865207a65726f206164647265737300604482015290519081900360640190fd5b620002626000838362000307565b6200027e816002546200030c60201b620005731790919060201c565b6002556001600160a01b03821660009081526020818152604090912054620002b1918390620005736200030c821b17901c565b6001600160a01b0383166000818152602081815260408083209490945583518581529351929391927fddf252ad1be2c89b69c2b068fc378daa952ba7f163c4a11628f55a4df523b3ef9281900390910190a35050565b505050565b60008282018381101562000367576040805162461bcd60e51b815260206004820152601b60248201527f536166654d6174683a206164646974696f6e206f766572666c6f770000000000604482015290519081900360640190fd5b9392505050565b828054600181600116156101000203166002900490600052602060002090601f016020900481019282620003a65760008555620003f1565b82601f10620003c157805160ff1916838001178555620003f1565b82800160010185558215620003f1579182015b82811115620003f1578251825591602001919060010190620003d4565b50620003ff92915062000403565b5090565b5b80821115620003ff576000815560010162000404565b6109f2806200042a6000396000f3fe608060405234801561001057600080fd5b50600436106100a95760003560e01c8063395093511161007157806339509351146101d957806370a082311461020557806395d89b411461022b578063a457c2d714610233578063a9059cbb1461025f578063dd62ed3e1461028b576100a9565b806306fdde03146100ae578063095ea7b31461012b57806318160ddd1461016b57806323b872dd14610185578063313ce567146101bb575b600080fd5b6100b66102b9565b6040805160208082528351818301528351919283929083019185019080838360005b838110156100f05781810151838201526020016100d8565b50505050905090810190601f16801561011d5780820380516001836020036101000a031916815260200191505b509250505060405180910390f35b6101576004803603604081101561014157600080fd5b506001600160a01b03813516906020013561034f565b604080519115158252519081900360200190f35b61017361036c565b60408051918252519081900360200190f35b6101576004803603606081101561019b57600080fd5b506001600160a01b03813581169160208101359091169060400135610372565b6101c36103f9565b6040805160ff9092168252519081900360200190f35b610157600480360360408110156101ef57600080fd5b506001600160a01b038135169060200135610402565b6101736004803603602081101561021b57600080fd5b50356001600160a01b0316610450565b6100b661046b565b6101576004803603604081101561024957600080fd5b506001600160a01b0381351690602001356104cc565b6101576004803603604081101561027557600080fd5b506001600160a01b038135169060200135610534565b610173600480360360408110156102a157600080fd5b506001600160a01b0381358116916020013516610548565b60038054604080516020601f60026000196101006001881615020190951694909404938401819004810282018101909252828152606093909290918301828280156103455780601f1061031a57610100808354040283529160200191610345565b820191906000526020600020905b81548152906001019060200180831161032857829003601f168201915b5050505050905090565b600061036361035c6105d4565b84846105d8565b50600192915050565b60025490565b600061037f8484846106c4565b6103ef8461038b6105d4565b6103ea85604051806060016040528060288152602001610927602891396001600160a01b038a166000908152600160205260408120906103c96105d4565b6001600160a01b03168152602081019190915260400160002054919061081f565b6105d8565b5060019392505050565b60055460ff1690565b600061036361040f6105d4565b846103ea85600160006104206105d4565b6001600160a01b03908116825260208083019390935260409182016000908120918c168152925290205490610573565b6001600160a01b031660009081526020819052604090205490565b60048054604080516020601f60026000196101006001881615020190951694909404938401819004810282018101909252828152606093909290918301828280156103455780601f1061031a57610100808354040283529160200191610345565b60006103636104d96105d4565b846103ea8560405180606001604052806025815260200161099860259139600160006105036105d4565b6001600160a01b03908116825260208083019390935260409182016000908120918d1681529252902054919061081f565b60006103636105416105d4565b84846106c4565b6001600160a01b03918216600090815260016020908152604080832093909416825291909152205490565b6000828201838110156105cd576040805162461bcd60e51b815260206004820152601b60248201527f536166654d6174683a206164646974696f6e206f766572666c6f770000000000604482015290519081900360640190fd5b9392505050565b3390565b6001600160a01b03831661061d5760405162461bcd60e51b81526004018080602001828103825260248152602001806109746024913960400191505060405180910390fd5b6001600160a01b0382166106625760405162461bcd60e51b81526004018080602001828103825260228152602001806108df6022913960400191505060405180910390fd5b6001600160a01b03808416600081815260016020908152604080832094871680845294825291829020859055815185815291517f8c5be1e5ebec7d5bd14f71427d1e84f3dd0314c0f7b2291e5b200ac8c7c3b9259281900390910190a3505050565b6001600160a01b0383166107095760405162461bcd60e51b815260040180806020018281038252602581526020018061094f6025913960400191505060405180910390fd5b6001600160a01b03821661074e5760405162461bcd60e51b81526004018080602001828103825260238152602001806108bc6023913960400191505060405180910390fd5b6107598383836108b6565b61079681604051806060016040528060268152602001610901602691396001600160a01b038616600090815260208190526040902054919061081f565b6001600160a01b0380851660009081526020819052604080822093909355908416815220546107c59082610573565b6001600160a01b038084166000818152602081815260409182902094909455805185815290519193928716927fddf252ad1be2c89b69c2b068fc378daa952ba7f163c4a11628f55a4df523b3ef92918290030190a3505050565b600081848411156108ae5760405162461bcd60e51b81526004018080602001828103825283818151815260200191508051906020019080838360005b8381101561087357818101518382015260200161085b565b50505050905090810190601f1680156108a05780820380516001836020036101000a031916815260200191505b509250505060405180910390fd5b505050900390565b50505056fe45524332303a207472616e7366657220746f20746865207a65726f206164647265737345524332303a20617070726f766520746f20746865207a65726f206164647265737345524332303a207472616e7366657220616d6f756e7420657863656564732062616c616e636545524332303a207472616e7366657220616d6f756e74206578636565647320616c6c6f77616e636545524332303a207472616e736665722066726f6d20746865207a65726f206164647265737345524332303a20617070726f76652066726f6d20746865207a65726f206164647265737345524332303a2064656372656173656420616c6c6f77616e63652062656c6f77207a65726fa26469706673582212200ef92494d57bea4701f68aade78c6b085100e3175b5d30555021a069fece732e64736f6c63430007060033416464726573733a20696e73756666696369656e742062616c616e636520666f722063616c6c617661696c61626c6520476f7665726e616e636520616d6f756e74206578636565646564617661696c61626c6520496e63656e746976657320616d6f756e74206578636565646564496e6372656173652074686520616c6c6f77616e63652066697273742c63616c6c2074686520617070726f7665206d6574686f645361666545524332303a204552433230206f7065726174696f6e20646964206e6f742073756363656564a2646970667358221220c9d5c58d54dcf5e1481284f5d84e2cf0250ca0c489f9e6b10bbc8241e5d2295864736f6c63430007060033",
    "sourcePath": "d:/BlackAndWhite/repo/black_and_white/contracts/Incentives/Incentives.sol",
    "compiler": {
        "name": "solc",
        "version": "0.7.6+commit.7338295f"
    },
    "functionHashes": {
        "allTokens(uint256)": "634282af",
        "availableTokens()": "69bb4dc2",
        "createnNewIncentivesToken(string,string)": "a83fe4e8",
        "crowdsaleContract()": "31616395",
        "getAddress(string,string)": "791b6d60",
        "getGovBalances(address)": "40e1e9f1",
        "getMaxBorrowed(address)": "157883ae",
        "governanceTokens()": "860941bb",
        "initialSupply()": "378dc3dc",
        "lockGovernance(address,address,uint256,uint256)": "c2514d1b",
        "owner()": "8da5cb5b",
        "putGovernance(uint256)": "75d2f2fe",
        "putIncentivesTokens(address,uint256)": "0d4a9835",
        "setCrowdsale(address)": "483a20b2",
        "switchOwner(address)": "395d7deb",
        "userState(address)": "0c8f81b5",
        "userscount()": "a5907272",
        "withdrawGovernance(uint256)": "f0783f82",
        "withdrawIncentives(address,uint256)": "af17eb3e"
    },
    "gasEstimates": {
        "creation": {
            "codeDepositCost": "2666400",
            "executionCost": "infinite",
            "totalCost": "infinite"
        },
        "external": {
            "allTokens(uint256)": "2081",
            "availableTokens()": "infinite",
            "createnNewIncentivesToken(string,string)": "infinite",
            "crowdsaleContract()": "1127",
            "getAddress(string,string)": "infinite",
            "getGovBalances(address)": "2121",
            "getMaxBorrowed(address)": "2122",
            "governanceTokens()": "1126",
            "initialSupply()": "1021",
            "lockGovernance(address,address,uint256,uint256)": "infinite",
            "owner()": "1148",
            "putGovernance(uint256)": "infinite",
            "putIncentivesTokens(address,uint256)": "infinite",
            "setCrowdsale(address)": "22002",
            "switchOwner(address)": "21958",
            "userState(address)": "infinite",
            "userscount()": "1020",
            "withdrawGovernance(uint256)": "infinite",
            "withdrawIncentives(address,uint256)": "infinite"
        }
    }
}