{
    "contractName": "PolarisCrowdsale",
    "abi": [
        {
            "inputs": [
                {
                    "internalType": "address",
                    "name": "_lockContract",
                    "type": "address"
                },
                {
                    "internalType": "address",
                    "name": "_saleToken",
                    "type": "address"
                },
                {
                    "internalType": "address",
                    "name": "_paymentToken",
                    "type": "address"
                },
                {
                    "internalType": "address[]",
                    "name": "_whiteAddresses",
                    "type": "address[]"
                },
                {
                    "internalType": "uint256",
                    "name": "_paymentPrice",
                    "type": "uint256"
                },
                {
                    "internalType": "uint256",
                    "name": "_maxPaymentQty",
                    "type": "uint256"
                },
                {
                    "internalType": "uint256",
                    "name": "unlockTime",
                    "type": "uint256"
                }
            ],
            "stateMutability": "nonpayable",
            "type": "constructor"
        },
        {
            "anonymous": false,
            "inputs": [
                {
                    "indexed": false,
                    "internalType": "uint256",
                    "name": "amount",
                    "type": "uint256"
                },
                {
                    "indexed": false,
                    "internalType": "uint256",
                    "name": "price",
                    "type": "uint256"
                },
                {
                    "indexed": false,
                    "internalType": "address",
                    "name": "buyer",
                    "type": "address"
                }
            ],
            "name": "Buy",
            "type": "event"
        },
        {
            "anonymous": false,
            "inputs": [
                {
                    "indexed": true,
                    "internalType": "address",
                    "name": "previousOwner",
                    "type": "address"
                },
                {
                    "indexed": true,
                    "internalType": "address",
                    "name": "newOwner",
                    "type": "address"
                }
            ],
            "name": "OwnershipTransferred",
            "type": "event"
        },
        {
            "inputs": [],
            "name": "SALE_TOKEN_PARTS",
            "outputs": [
                {
                    "internalType": "uint256",
                    "name": "",
                    "type": "uint256"
                }
            ],
            "stateMutability": "view",
            "type": "function"
        },
        {
            "inputs": [
                {
                    "internalType": "address",
                    "name": "_newBuyer",
                    "type": "address"
                }
            ],
            "name": "addToWhiteList",
            "outputs": [],
            "stateMutability": "nonpayable",
            "type": "function"
        },
        {
            "inputs": [],
            "name": "available",
            "outputs": [
                {
                    "internalType": "uint256",
                    "name": "",
                    "type": "uint256"
                }
            ],
            "stateMutability": "view",
            "type": "function"
        },
        {
            "inputs": [
                {
                    "internalType": "uint256",
                    "name": "paymentTokenAmount",
                    "type": "uint256"
                }
            ],
            "name": "buy",
            "outputs": [],
            "stateMutability": "nonpayable",
            "type": "function"
        },
        {
            "inputs": [],
            "name": "finance",
            "outputs": [
                {
                    "internalType": "address",
                    "name": "",
                    "type": "address"
                }
            ],
            "stateMutability": "view",
            "type": "function"
        },
        {
            "inputs": [],
            "name": "isOwner",
            "outputs": [
                {
                    "internalType": "bool",
                    "name": "",
                    "type": "bool"
                }
            ],
            "stateMutability": "view",
            "type": "function"
        },
        {
            "inputs": [],
            "name": "maxPaymentQty",
            "outputs": [
                {
                    "internalType": "uint256",
                    "name": "",
                    "type": "uint256"
                }
            ],
            "stateMutability": "view",
            "type": "function"
        },
        {
            "inputs": [],
            "name": "minPaymentQty",
            "outputs": [
                {
                    "internalType": "uint256",
                    "name": "",
                    "type": "uint256"
                }
            ],
            "stateMutability": "view",
            "type": "function"
        },
        {
            "inputs": [],
            "name": "owner",
            "outputs": [
                {
                    "internalType": "address",
                    "name": "",
                    "type": "address"
                }
            ],
            "stateMutability": "view",
            "type": "function"
        },
        {
            "inputs": [],
            "name": "paymentPrice",
            "outputs": [
                {
                    "internalType": "uint256",
                    "name": "",
                    "type": "uint256"
                }
            ],
            "stateMutability": "view",
            "type": "function"
        },
        {
            "inputs": [],
            "name": "paymentToken",
            "outputs": [
                {
                    "internalType": "contract IERC20",
                    "name": "",
                    "type": "address"
                }
            ],
            "stateMutability": "view",
            "type": "function"
        },
        {
            "inputs": [],
            "name": "renounceOwnership",
            "outputs": [],
            "stateMutability": "nonpayable",
            "type": "function"
        },
        {
            "inputs": [],
            "name": "saleToken",
            "outputs": [
                {
                    "internalType": "contract IERC20",
                    "name": "",
                    "type": "address"
                }
            ],
            "stateMutability": "view",
            "type": "function"
        },
        {
            "inputs": [
                {
                    "internalType": "address",
                    "name": "financeAddr",
                    "type": "address"
                }
            ],
            "name": "setFinance",
            "outputs": [],
            "stateMutability": "nonpayable",
            "type": "function"
        },
        {
            "inputs": [
                {
                    "internalType": "address",
                    "name": "newOwner",
                    "type": "address"
                }
            ],
            "name": "transferOwnership",
            "outputs": [],
            "stateMutability": "nonpayable",
            "type": "function"
        },
        {
            "inputs": [
                {
                    "internalType": "uint256",
                    "name": "amount",
                    "type": "uint256"
                }
            ],
            "name": "withdrawSaleToken",
            "outputs": [],
            "stateMutability": "nonpayable",
            "type": "function"
        }
    ],
    "bytecode": "60806040523480156200001157600080fd5b506040516200128d3803806200128d833981810160405260e08110156200003757600080fd5b8151602083015160408085015160608601805192519496939591949391820192846401000000008211156200006b57600080fd5b9083019060208201858111156200008157600080fd5b82518660208202830111640100000000821117156200009f57600080fd5b82525081516020918201928201910280838360005b83811015620000ce578181015183820152602001620000b4565b50505050919091016040818152602084015190840151606090940151600080546001600160a01b0319163317808255929750949550936001600160a01b03919091169250907f8be0079c531659141344cd1fd0a4f28419497f9722a3daafe3b4186f6b6457e0908290a36001805560088054336001600160a01b0319918216179091556002805482166001600160a01b038981169190911790915560038054831688831617905560048590556005849055600a8054909216908916179055630784ce004201811115620001e8576040805162461bcd60e51b815260206004820152601e60248201527f566f74696e67206c6f636b2063616e2062652034207965617273206d61780000604482015290519081900360640190fd5b600681905560005b845181101562000248576001600760008784815181106200020d57fe5b6020908102919091018101516001600160a01b03168252810191909152604001600020805460ff1916911515919091179055600101620001f0565b5062000264600a846200027560201b620009881790919060201c565b60095550620002dc95505050505050565b6000826200028657506000620002d6565b828202828482816200029457fe5b0414620002d35760405162461bcd60e51b81526004018080602001828103825260218152602001806200126c6021913960400191505060405180910390fd5b90505b92915050565b610f8080620002ec6000396000f3fe608060405234801561001057600080fd5b50600436106101005760003560e01c80638f32d59b11610097578063ded441c211610066578063ded441c2146101fa578063e985e36714610217578063ee4d8a9e1461021f578063f2fde38b1461022757610100565b80638f32d59b146101935780639b8d3064146101af578063b6c71d82146101d5578063d96a094a146101dd57610100565b806347ee0394116100d357806347ee03941461015357806348a0d7541461017b578063715018a6146101835780638da5cb5b1461018b57610100565b8063262fd427146101055780632c6e45441461011f5780633013ce2914610127578063313b7b191461014b575b600080fd5b61010d61024d565b60408051918252519081900360200190f35b61010d610253565b61012f61025f565b604080516001600160a01b039092168252519081900360200190f35b61012f61026e565b6101796004803603602081101561016957600080fd5b50356001600160a01b031661027d565b005b61010d6102b2565b61017961032e565b61012f610389565b61019b610398565b604080519115158252519081900360200190f35b610179600480360360208110156101c557600080fd5b50356001600160a01b03166103a9565b61010d6103dc565b610179600480360360208110156101f357600080fd5b50356103e2565b6101796004803603602081101561021057600080fd5b50356108cf565b61012f610959565b61010d610968565b6101796004803603602081101561023d57600080fd5b50356001600160a01b031661096e565b60095481565b670de0b6b3a764000081565b6003546001600160a01b031681565b6008546001600160a01b031681565b610285610398565b61028e57600080fd5b6001600160a01b03166000908152600760205260409020805460ff19166001179055565b600254604080516370a0823160e01b815230600482015290516000926001600160a01b0316916370a08231916024808301926020929190829003018186803b1580156102fd57600080fd5b505afa158015610311573d6000803e3d6000fd5b505050506040513d602081101561032757600080fd5b5051905090565b610336610398565b61033f57600080fd5b600080546040516001600160a01b03909116907f8be0079c531659141344cd1fd0a4f28419497f9722a3daafe3b4186f6b6457e0908390a3600080546001600160a01b0319169055565b6000546001600160a01b031690565b6000546001600160a01b0316331490565b6103b1610398565b6103ba57600080fd5b600880546001600160a01b0319166001600160a01b0392909216919091179055565b60055481565b6002600154141561043a576040805162461bcd60e51b815260206004820152601f60248201527f5265656e7472616e637947756172643a207265656e7472616e742063616c6c00604482015290519081900360640190fd5b60026001553360009081526007602052604090205460ff1661048d5760405162461bcd60e51b8152600401808060200182810382526021815260200180610f006021913960400191505060405180910390fd5b6009548110156104e4576040805162461bcd60e51b815260206004820152601c60248201527f616d6f756e74206c657373207468616e20746865206d696e696d756d00000000604482015290519081900360640190fd5b60055481111561053b576040805162461bcd60e51b815260206004820152601c60248201527f616d6f756e74206d6f7265207468616e20746865206d6178696d756d00000000604482015290519081900360640190fd5b600254604080516370a0823160e01b815230600482015290516000926001600160a01b0316916370a08231916024808301926020929190829003018186803b15801561058657600080fd5b505afa15801561059a573d6000803e3d6000fd5b505050506040513d60208110156105b057600080fd5b50519050678ac7230489e800008111610607576040805162461bcd60e51b8152602060048201526014602482015273544f4b454e535f4e4f545f415641494c41424c4560601b604482015290519081900360640190fd5b6004546000906106299061062385670de0b6b3a7640000610988565b906109ea565b90508082101561065a57819050610657670de0b6b3a76400006106236004548461098890919063ffffffff16565b92505b60035460408051636eb1769f60e11b8152336004820152306024820152905185926001600160a01b03169163dd62ed3e916044808301926020929190829003018186803b1580156106aa57600080fd5b505afa1580156106be573d6000803e3d6000fd5b505050506040513d60208110156106d457600080fd5b505110156107135760405162461bcd60e51b8152600401808060200182810382526034815260200180610eab6034913960400191505060405180910390fd5b600854600354610732916001600160a01b039182169133911686610a2c565b600a5460025461074f916001600160a01b03918216911683610a8c565b600a5460065460408051602481018590526044808201939093528151808203909301835260640181526020820180516001600160e01b03166377a0da7360e01b178152905182516000946001600160a01b0316939282918083835b602083106107c95780518252601f1990920191602091820191016107aa565b6001836020036101000a0380198251168184511680821785525050505050509050019150506000604051808303816000865af19150503d806000811461082b576040519150601f19603f3d011682016040523d82523d6000602084013e610830565b606091505b5050905080610886576040805162461bcd60e51b815260206004820152601b60248201527f6372656174655f6c6f636b5f666f725f6f726967696e204641494c0000000000604482015290519081900360640190fd5b6040805183815260208101869052338183015290517ff7735c8cb2a65788ca663fc8415b7c6a66cd6847d58346d8334e8d52a599d3df9181900360600190a15050600180555050565b6108d7610398565b6108e057600080fd5b6000811180156108f757506108f36102b2565b8111155b61093f576040805162461bcd60e51b8152602060048201526014602482015273616d6f756e7420697320696e636f72726563742160601b604482015290519081900360640190fd5b600254610956906001600160a01b03163383610a8c565b50565b6002546001600160a01b031681565b60045481565b610976610398565b61097f57600080fd5b61095681610ae3565b600082610997575060006109e4565b828202828482816109a457fe5b04146109e15760405162461bcd60e51b8152600401808060200182810382526021815260200180610edf6021913960400191505060405180910390fd5b90505b92915050565b60006109e183836040518060400160405280601a81526020017f536166654d6174683a206469766973696f6e206279207a65726f000000000000815250610b51565b604080516001600160a01b0380861660248301528416604482015260648082018490528251808303909101815260849091019091526020810180516001600160e01b03166323b872dd60e01b179052610a86908590610bf5565b50505050565b604080516001600160a01b038416602482015260448082018490528251808303909101815260649091019091526020810180516001600160e01b031663a9059cbb60e01b179052610ade908490610bf5565b505050565b6001600160a01b038116610af657600080fd5b600080546040516001600160a01b03808516939216917f8be0079c531659141344cd1fd0a4f28419497f9722a3daafe3b4186f6b6457e091a3600080546001600160a01b0319166001600160a01b0392909216919091179055565b60008183610bdd5760405162461bcd60e51b81526004018080602001828103825283818151815260200191508051906020019080838360005b83811015610ba2578181015183820152602001610b8a565b50505050905090810190601f168015610bcf5780820380516001836020036101000a031916815260200191505b509250505060405180910390fd5b506000838581610be957fe5b049150505b9392505050565b6000610c4a826040518060400160405280602081526020017f5361666545524332303a206c6f772d6c6576656c2063616c6c206661696c6564815250856001600160a01b0316610ca69092919063ffffffff16565b805190915015610ade57808060200190516020811015610c6957600080fd5b5051610ade5760405162461bcd60e51b815260040180806020018281038252602a815260200180610f21602a913960400191505060405180910390fd5b6060610cb58484600085610cbd565b949350505050565b606082471015610cfe5760405162461bcd60e51b8152600401808060200182810382526026815260200180610e856026913960400191505060405180910390fd5b610d0785610e18565b610d58576040805162461bcd60e51b815260206004820152601d60248201527f416464726573733a2063616c6c20746f206e6f6e2d636f6e7472616374000000604482015290519081900360640190fd5b600080866001600160a01b031685876040518082805190602001908083835b60208310610d965780518252601f199092019160209182019101610d77565b6001836020036101000a03801982511681845116808217855250505050505090500191505060006040518083038185875af1925050503d8060008114610df8576040519150601f19603f3d011682016040523d82523d6000602084013e610dfd565b606091505b5091509150610e0d828286610e1e565b979650505050505050565b3b151590565b60608315610e2d575081610bee565b825115610e3d5782518084602001fd5b60405162461bcd60e51b8152602060048201818152845160248401528451859391928392604401919085019080838360008315610ba2578181015183820152602001610b8a56fe416464726573733a20696e73756666696369656e742062616c616e636520666f722063616c6c496e6372656173652074686520616c6c6f77616e63652066697273742c63616c6c2074686520617070726f7665206d6574686f64536166654d6174683a206d756c7469706c69636174696f6e206f766572666c6f776973206e6f7420617661696c61626c6520666f722074686973206163636f756e745361666545524332303a204552433230206f7065726174696f6e20646964206e6f742073756363656564a26469706673582212207385d048be9c3260aa2c05208ffeb87cdeddc4dc35f472409c29f2639780623964736f6c63430007060033536166654d6174683a206d756c7469706c69636174696f6e206f766572666c6f77",
    "sourcePath": "d:/BlackAndWhite/repo/black_and_white/contracts/Incentives/Sale - QA.sol",
    "compiler": {
        "name": "solc",
        "version": "0.7.6+commit.7338295f"
    },
    "functionHashes": {
        "SALE_TOKEN_PARTS()": "2c6e4544",
        "addToWhiteList(address)": "47ee0394",
        "available()": "48a0d754",
        "buy(uint256)": "d96a094a",
        "finance()": "313b7b19",
        "isOwner()": "8f32d59b",
        "maxPaymentQty()": "b6c71d82",
        "minPaymentQty()": "262fd427",
        "owner()": "8da5cb5b",
        "paymentPrice()": "ee4d8a9e",
        "paymentToken()": "3013ce29",
        "renounceOwnership()": "715018a6",
        "saleToken()": "e985e367",
        "setFinance(address)": "9b8d3064",
        "transferOwnership(address)": "f2fde38b",
        "withdrawSaleToken(uint256)": "ded441c2"
    },
    "gasEstimates": {
        "creation": {
            "codeDepositCost": "793600",
            "executionCost": "infinite",
            "totalCost": "infinite"
        },
        "external": {
            "SALE_TOKEN_PARTS()": "244",
            "addToWhiteList(address)": "22002",
            "available()": "infinite",
            "buy(uint256)": "infinite",
            "finance()": "1127",
            "isOwner()": "1050",
            "maxPaymentQty()": "1065",
            "minPaymentQty()": "1022",
            "owner()": "1126",
            "paymentPrice()": "1064",
            "paymentToken()": "1105",
            "renounceOwnership()": "24259",
            "saleToken()": "1081",
            "setFinance(address)": "21985",
            "transferOwnership(address)": "24446",
            "withdrawSaleToken(uint256)": "infinite"
        }
    }
}