{
    "contractName": "PrivateSale",
    "abi": [
        {
            "inputs": [
                {
                    "internalType": "address",
                    "name": "_lockContract",
                    "type": "address"
                },
                {
                    "internalType": "address",
                    "name": "_incentivesContract",
                    "type": "address"
                },
                {
                    "internalType": "address",
                    "name": "_incentivesTokenAddress",
                    "type": "address"
                },
                {
                    "internalType": "address",
                    "name": "_saleToken",
                    "type": "address"
                }
            ],
            "stateMutability": "nonpayable",
            "type": "constructor"
        },
        {
            "anonymous": false,
            "inputs": [
                {
                    "indexed": false,
                    "internalType": "uint256",
                    "name": "amount",
                    "type": "uint256"
                },
                {
                    "indexed": false,
                    "internalType": "uint256",
                    "name": "unlockTime",
                    "type": "uint256"
                },
                {
                    "indexed": false,
                    "internalType": "address",
                    "name": "buyer",
                    "type": "address"
                }
            ],
            "name": "Distribute",
            "type": "event"
        },
        {
            "anonymous": false,
            "inputs": [
                {
                    "indexed": true,
                    "internalType": "address",
                    "name": "previousOwner",
                    "type": "address"
                },
                {
                    "indexed": true,
                    "internalType": "address",
                    "name": "newOwner",
                    "type": "address"
                }
            ],
            "name": "OwnershipTransferred",
            "type": "event"
        },
        {
            "inputs": [
                {
                    "components": [
                        {
                            "internalType": "address",
                            "name": "user",
                            "type": "address"
                        },
                        {
                            "internalType": "uint256",
                            "name": "lockPeriod",
                            "type": "uint256"
                        },
                        {
                            "internalType": "uint256",
                            "name": "amount",
                            "type": "uint256"
                        }
                    ],
                    "internalType": "struct PrivateSale.LockIInfoExt[]",
                    "name": "_newBuyers",
                    "type": "tuple[]"
                }
            ],
            "name": "addToWhiteList",
            "outputs": [],
            "stateMutability": "nonpayable",
            "type": "function"
        },
        {
            "inputs": [
                {
                    "internalType": "address",
                    "name": "user",
                    "type": "address"
                },
                {
                    "internalType": "uint256",
                    "name": "lockPeriod",
                    "type": "uint256"
                },
                {
                    "internalType": "uint256",
                    "name": "amount",
                    "type": "uint256"
                }
            ],
            "name": "addToWhiteList1",
            "outputs": [],
            "stateMutability": "nonpayable",
            "type": "function"
        },
        {
            "inputs": [],
            "name": "available",
            "outputs": [
                {
                    "internalType": "uint256",
                    "name": "",
                    "type": "uint256"
                }
            ],
            "stateMutability": "view",
            "type": "function"
        },
        {
            "inputs": [],
            "name": "distribute",
            "outputs": [],
            "stateMutability": "nonpayable",
            "type": "function"
        },
        {
            "inputs": [],
            "name": "incentivesContract",
            "outputs": [
                {
                    "internalType": "contract IIncentives",
                    "name": "",
                    "type": "address"
                }
            ],
            "stateMutability": "view",
            "type": "function"
        },
        {
            "inputs": [],
            "name": "isOwner",
            "outputs": [
                {
                    "internalType": "bool",
                    "name": "",
                    "type": "bool"
                }
            ],
            "stateMutability": "view",
            "type": "function"
        },
        {
            "inputs": [],
            "name": "owner",
            "outputs": [
                {
                    "internalType": "address",
                    "name": "",
                    "type": "address"
                }
            ],
            "stateMutability": "view",
            "type": "function"
        },
        {
            "inputs": [],
            "name": "renounceOwnership",
            "outputs": [],
            "stateMutability": "nonpayable",
            "type": "function"
        },
        {
            "inputs": [
                {
                    "internalType": "address",
                    "name": "user",
                    "type": "address"
                }
            ],
            "name": "saleInfo",
            "outputs": [
                {
                    "components": [
                        {
                            "internalType": "uint256",
                            "name": "lockPeriod",
                            "type": "uint256"
                        },
                        {
                            "internalType": "uint256",
                            "name": "amount",
                            "type": "uint256"
                        }
                    ],
                    "internalType": "struct PrivateSale.LockIInfo",
                    "name": "",
                    "type": "tuple"
                }
            ],
            "stateMutability": "view",
            "type": "function"
        },
        {
            "inputs": [],
            "name": "saleToken",
            "outputs": [
                {
                    "internalType": "contract IERC20",
                    "name": "",
                    "type": "address"
                }
            ],
            "stateMutability": "view",
            "type": "function"
        },
        {
            "inputs": [
                {
                    "internalType": "address",
                    "name": "newOwner",
                    "type": "address"
                }
            ],
            "name": "transferOwnership",
            "outputs": [],
            "stateMutability": "nonpayable",
            "type": "function"
        },
        {
            "inputs": [
                {
                    "internalType": "uint256",
                    "name": "amount",
                    "type": "uint256"
                }
            ],
            "name": "withdrawSaleToken",
            "outputs": [],
            "stateMutability": "nonpayable",
            "type": "function"
        }
    ],
    "bytecode": "608060405234801561001057600080fd5b50604051610e4c380380610e4c83398101604081905261002f916100e8565b600080546001600160a01b03191633178082556040516001600160a01b039190911691907f8be0079c531659141344cd1fd0a4f28419497f9722a3daafe3b4186f6b6457e0908290a360018055600280546001600160a01b03199081166001600160a01b0393841617909155600580548216958316959095179094556003805485169382169390931790925560068054909316911617905561013b565b80516001600160a01b03811681146100e357600080fd5b919050565b600080600080608085870312156100fd578384fd5b610106856100cc565b9350610114602086016100cc565b9250610122604086016100cc565b9150610130606086016100cc565b905092959194509250565b610d028061014a6000396000f3fe608060405234801561001057600080fd5b50600436106100b45760003560e01c8063b0d7c00b11610071578063b0d7c00b14610126578063d7b0b29d14610139578063ded441c214610159578063e4fc6b6d1461016c578063e985e36714610174578063f2fde38b1461017c576100b4565b806348a0d754146100b95780634fd8f615146100d7578063715018a6146100ec5780638da5cb5b146100f45780638f32d59b14610109578063adb1859d1461011e575b600080fd5b6100c161018f565b6040516100ce9190610c54565b60405180910390f35b6100ea6100e5366004610a73565b610215565b005b6100ea610260565b6100fc6102bb565b6040516100ce9190610b45565b6101116102ca565b6040516100ce9190610b82565b6100fc6102db565b6100ea610134366004610aa5565b6102ea565b61014c610147366004610a59565b61039d565b6040516100ce9190610c3d565b6100ea610167366004610b15565b6103dc565b6100ea610443565b6100fc610670565b6100ea61018a366004610a59565b61067f565b6002546040516370a0823160e01b81526000916001600160a01b0316906370a08231906101c0903090600401610b45565b60206040518083038186803b1580156101d857600080fd5b505afa1580156101ec573d6000803e3d6000fd5b505050506040513d601f19601f820116820180604052508101906102109190610b2d565b905090565b61021d6102ca565b61022657600080fd5b60408051808201825292835260208084019283526001600160a01b0390941660009081526004909452909220905181559051600190910155565b6102686102ca565b61027157600080fd5b600080546040516001600160a01b03909116907f8be0079c531659141344cd1fd0a4f28419497f9722a3daafe3b4186f6b6457e0908390a3600080546001600160a01b0319169055565b6000546001600160a01b031690565b6000546001600160a01b0316331490565b6003546001600160a01b031681565b6102f26102ca565b6102fb57600080fd5b60005b8181101561039857604051806040016040528084848481811061031d57fe5b90506060020160200135815260200184848481811061033857fe5b905060600201604001358152506004600085858581811061035557fe5b61036b9260206060909202019081019150610a59565b6001600160a01b0316815260208082019290925260400160002082518155910151600191820155016102fe565b505050565b6103a5610a28565b506001600160a01b03811660009081526004602090815260409182902082518084019093528054835260010154908201525b919050565b6103e46102ca565b6103ed57600080fd5b600081118015610404575061040061018f565b8111155b6104295760405162461bcd60e51b815260040161042090610b8d565b60405180910390fd5b600254610440906001600160a01b03163383610699565b50565b6002600154141561049b576040805162461bcd60e51b815260206004820152601f60248201527f5265656e7472616e637947756172643a207265656e7472616e742063616c6c00604482015290519081900360640190fd5b6002600190815533600090815260046020526040902001546104cf5760405162461bcd60e51b815260040161042090610bbb565b6002546040516370a0823160e01b81526000916001600160a01b0316906370a0823190610500903090600401610b45565b60206040518083038186803b15801561051857600080fd5b505afa15801561052c573d6000803e3d6000fd5b505050506040513d601f19601f820116820180604052508101906105509190610b2d565b33600090815260046020526040812060010180549190559091508082101561058a5760405162461bcd60e51b815260040161042090610bfc565b6003546002546105a7916001600160a01b03918216911683610699565b3360009081526004602081905260409182902054600354600554600654945163c2514d1b60e01b815292946001600160a01b039283169463c2514d1b946105fa9493841693909216918891889101610b59565b600060405180830381600087803b15801561061457600080fd5b505af1158015610628573d6000803e3d6000fd5b505050507fcdb9dbd6581d54345ba64f0b9e025c10f0721c9eda2705c9e4b11ca2dcfd509882823360405161065f93929190610c5d565b60405180910390a150506001805550565b6002546001600160a01b031681565b6106876102ca565b61069057600080fd5b610440816106eb565b604080516001600160a01b038416602482015260448082018490528251808303909101815260649091019091526020810180516001600160e01b031663a9059cbb60e01b179052610398908490610759565b6001600160a01b0381166106fe57600080fd5b600080546040516001600160a01b03808516939216917f8be0079c531659141344cd1fd0a4f28419497f9722a3daafe3b4186f6b6457e091a3600080546001600160a01b0319166001600160a01b0392909216919091179055565b60006107ae826040518060400160405280602081526020017f5361666545524332303a206c6f772d6c6576656c2063616c6c206661696c6564815250856001600160a01b031661080a9092919063ffffffff16565b805190915015610398578080602001905160208110156107cd57600080fd5b50516103985760405162461bcd60e51b815260040180806020018281038252602a815260200180610ca3602a913960400191505060405180910390fd5b60606108198484600085610823565b90505b9392505050565b6060824710156108645760405162461bcd60e51b8152600401808060200182810382526026815260200180610c7d6026913960400191505060405180910390fd5b61086d8561097e565b6108be576040805162461bcd60e51b815260206004820152601d60248201527f416464726573733a2063616c6c20746f206e6f6e2d636f6e7472616374000000604482015290519081900360640190fd5b600080866001600160a01b031685876040518082805190602001908083835b602083106108fc5780518252601f1990920191602091820191016108dd565b6001836020036101000a03801982511681845116808217855250505050505090500191505060006040518083038185875af1925050503d806000811461095e576040519150601f19603f3d011682016040523d82523d6000602084013e610963565b606091505b5091509150610973828286610984565b979650505050505050565b3b151590565b6060831561099357508161081c565b8251156109a35782518084602001fd5b8160405162461bcd60e51b81526004018080602001828103825283818151815260200191508051906020019080838360005b838110156109ed5781810151838201526020016109d5565b50505050905090810190601f168015610a1a5780820380516001836020036101000a031916815260200191505b509250505060405180910390fd5b604051806040016040528060008152602001600081525090565b80356001600160a01b03811681146103d757600080fd5b600060208284031215610a6a578081fd5b61081c82610a42565b600080600060608486031215610a87578182fd5b610a9084610a42565b95602085013595506040909401359392505050565b60008060208385031215610ab7578182fd5b823567ffffffffffffffff80821115610ace578384fd5b818501915085601f830112610ae1578384fd5b813581811115610aef578485fd5b866020606083028501011115610b03578485fd5b60209290920196919550909350505050565b600060208284031215610b26578081fd5b5035919050565b600060208284031215610b3e578081fd5b5051919050565b6001600160a01b0391909116815260200190565b6001600160a01b0394851681529290931660208301526040820152606081019190915260800190565b901515815260200190565b602080825260149082015273616d6f756e7420697320696e636f72726563742160601b604082015260600190565b60208082526021908201527f4973206e6f7420617661696c61626c6520666f722074686973206163636f756e6040820152601d60fa1b606082015260800190565b60208082526021908201527f4e6f7420656e6f75676820746f6b656e7320696e2074686520636f6e747261636040820152601d60fa1b606082015260800190565b815181526020918201519181019190915260400190565b90815260200190565b92835260208301919091526001600160a01b031660408201526060019056fe416464726573733a20696e73756666696369656e742062616c616e636520666f722063616c6c5361666545524332303a204552433230206f7065726174696f6e20646964206e6f742073756363656564a2646970667358221220425adb6a7d4533637bfcc18b5c280e3abd9bed71a334a49111b5912ba286a71864736f6c63430007060033",
    "sourcePath": "d:/BlackAndWhite/repo/black_and_white/contracts/Incentives/Sale - Private.sol",
    "compiler": {
        "name": "solc",
        "version": "0.7.6+commit.7338295f"
    },
    "functionHashes": {
        "addToWhiteList((address,uint256,uint256)[])": "b0d7c00b",
        "addToWhiteList1(address,uint256,uint256)": "4fd8f615",
        "available()": "48a0d754",
        "distribute()": "e4fc6b6d",
        "incentivesContract()": "adb1859d",
        "isOwner()": "8f32d59b",
        "owner()": "8da5cb5b",
        "renounceOwnership()": "715018a6",
        "saleInfo(address)": "d7b0b29d",
        "saleToken()": "e985e367",
        "transferOwnership(address)": "f2fde38b",
        "withdrawSaleToken(uint256)": "ded441c2"
    },
    "gasEstimates": {
        "creation": {
            "codeDepositCost": "666000",
            "executionCost": "infinite",
            "totalCost": "infinite"
        },
        "external": {
            "addToWhiteList((address,uint256,uint256)[])": "infinite",
            "addToWhiteList1(address,uint256,uint256)": "41419",
            "available()": "infinite",
            "distribute()": "infinite",
            "incentivesContract()": "1181",
            "isOwner()": "1146",
            "owner()": "1137",
            "renounceOwnership()": "24237",
            "saleInfo(address)": "infinite",
            "saleToken()": "1158",
            "transferOwnership(address)": "24566",
            "withdrawSaleToken(uint256)": "infinite"
        }
    }
}